:0C094E000A08C0F9A4B0999282F88090C9
:05095B00D2AFD2A8227A
:0C08DC0074082512F8E6F5907F647E0099
:1008E800E4FDFCC3ED9FEC9E5015E4FBFA0BBB0046
:0F08F800010ABA04F8BBFBF50DBD00010C80E44A
:0109070022CD
:10092200751205D3E5129400748094804007120872
:06093200DC151280EE222C
:10093800751209D3E5129400748094804007120858
:06094800DC151280EE2216
:1009080012095B7590FFC2A0D2A1D2A21208E4D24C
:0A091800A0D2A2D2A11208E880E6E6
:0300030002088C64
:10088C00C0E0C0D075D000C000C002C003C004C01E
:10089C0005C006C00785089075A0FF7FC87E0012B2
:1008AC0008E8C2A0D2A1D2A2120922D2A0C2A1D21F
:1008BC00A2120938D2A0D2A1C2A2120938D007D0F4
:1008CC0006D005D004D003D002D000D0D0D0E03276
:03000000020800F3
:0C080000787FE4F6D8FD758112020847ED
:10080C00020908E493A3F8E493A34003F68001F2F1
:10081C0008DFF48029E493A3F85407240CC8C333ED
:10082C00C4540F4420C8834004F456800146F6DFBC
:10083C00E4800B010204081020408090094EE47EF5
:10084C00019360BCA3FF543F30E509541FFEE493B1
:10085C00A360010ECF54C025E060A840B8E493A378
:10086C00FAE493A3F8E493A3C8C582C8CAC583CAA3
:10087C00F0A3C8C582C8CAC583CADFE9DEE780BE5B
:01095A00009C
:00000001FF
