:1009C60014083F065B4F666D7D077F6F00000000D1
:0609D6000000000000001B
:0C099A007408251CF8E6F5A07F647E00C0
:1009A600E4FDFCC3ED9FEC9E5015E4FBFA0BBB0087
:0F09B600010ABA04F8BBFBF50DBD00010C80E48B
:0109C500220F
:1009DD00751C05D3E51C94007480948040071209A2
:0609ED009A151C80EE22A9
:1009F300751C09D3E51C9400748094804007120988
:060A03009A151C80EE2292
:100A0900751C0ED3E51C940074809480400712096C
:060A19009A151C80EE227C
:100800008508A075A0FF7FC87E001209A69000642D
:100810007C007D0AAF82AE831209458C1D8D1EC2FD
:10082000B0D2B1C2B2D2B37408251E12099E7C00A8
:100830007D0AAF82AE831209458E1D8F1ED2B0C2D3
:10084000B1D2B2C2B374082F12099EC291C292D221
:1008500090C294D295C2931209F3D291C292C290DF
:10086000C294C295D2931209DDC291D292C290C2B3
:1008700094C295D2931209F3C294C295D293C291B5
:10088000D292C2901209F3D294C295C293C291C27D
:1008900092D2901209DDC294D295C293C291C292B3
:1008A000D2901209F3E582158270021583E5824524
:0908B00083600302081002080035
:030000000208B93A
:0C08B900787FE4F6D8FD75811E0209006E
:10094500BC000BBE0029EF8DF084FFADF022E4CC96
:10095500F875F008EF2FFFEE33FEEC33FCEE9DEC5F
:10096500984005FCEE9DFE0FD5F0E9E4CEFD22EDA5
:10097500F8F5F0EE8420D21CFEADF075F008EF2FEF
:10098500FFED33FD4007985006D5F0F222C398FDE0
:050995000FD5F0EA227D
:1008C500020800E493A3F8E493A34003F68001F241
:1008D50008DFF48029E493A3F85407240CC8C33334
:1008E500C4540F4420C8834004F456800146F6DF03
:1008F500E4800B01020408102040809009C6E47EC4
:10090500019360BCA3FF543F30E509541FFEE493F7
:10091500A360010ECF54C025E060A840B8E493A3BE
:10092500FAE493A3F8E493A3C8C582C8CAC583CAE9
:10093500F0A3C8C582C8CAC583CADFE9DEE780BEA1
:0109DC00001A
:00000001FF
